:020000040800F2
:1000000000000320195C0008610B0008630B000866
:10001000650B0008670B0008690B00080000000072
:10002000000000000000000000000000A1530008D4
:100030006B0B000800000000415400082B4F000823
:10004000695C0008695C0008695C0008695C00087C
:10005000695C0008695C0008695C0008695C00086C
:10006000695C0008695C0008695C00086D0B0008A9
:100070007D0B0008695C0008695C0008695C000889
:10008000695C0008695C0008695C0008695C00083C
:10009000695C0008695C0008695C0008695C00082C
:1000A000695C00088D0B0008695C0008695C000849
:1000B000695C0008695C0008695C0008695C00080C
:1000C000695C0008695C0008695C0008695C0008FC
:1000D000695C0008695C0008695C00089D0B000809
:1000E000695C0008695C0008695C0008695C0008DC
:1000F000695C0008695C0008695C00080000000099
:10010000695C0008695C0008695C0008695C0008BB
:10011000695C0008695C0008695C0008695C0008AB
:10012000695C0008695C0008695C0008695C00089B
:10013000695C0008695C0008695C0008695C00088B
:10014000695C0008695C0008695C0008695C00087B
:10015000695C0008695C0008695C0008695C00086B
:10016000695C0008695C0008695C0008695C00085B
:10017000695C0008695C00080000000000000000E5
:10018000695C0008695C0008695C0008695C00083B
:10019000695C0008695C00080000000000000000C5
:1001A0000000000000000000695C0008695C0008B5
:1001B000695C0008695C0008695C000800000000D8
:1001C00010B5054C237833B9044B13B10448AFF391
:1001D00000800123237010BD1001002000000000EA
:1001E000F8FC000808B5034B1BB103490348AFF303
:1001F000008008BD0000000014010020F8FC000889
:1002000001F0FF01102A2BDB10F0070F08D010F8C7
:10021000013B013A8B422DD010F0070F42B3F6D1CB
:10022000F0B441EA012141EA014122F007047FF0E4
:1002300000070023F0E80256083C85EA010586EA3B
:10024000010685FA47F5A3FA87F586FA47F6A5FA77
:1002500087F68EB9EED1F0BC01F0FF0102F0070283
:1002600032B110F8013B013A83EA010313B1F8D12E
:100270000020704701387047002D06BF354603380F
:10028000073815F0010F07D1013015F4807F02BF48
:10029000013015F4C03F0130F0BC0138704700BF99
:1002A0007BB972B90029BEBF00204FF0004106E0C3
:1002B00008BF00281CBF6FF000414FF0FF3000F076
:1002C000D3B9ADF1080C6DE904CE002909DB002B90
:1002D0001ADB00F04DF8DDF804E0DDE9022304B09C
:1002E0007047404261EB4101002B1BDB00F040F8FE
:1002F000DDF804E0DDE9022304B0404261EB410196
:10030000524263EB43037047524263EB430300F0F6
:100310002FF8DDF804E0DDE9022304B0404261EB90
:1003200041017047524263EB430300F021F8DDF8CE
:1003300004E0DDE9022304B0524263EB430370475B
:1003400053B94AB9002908BF00281CBF4FF0FF313C
:100350004FF0FF3000F088B9ADF1080C6DE904CE24
:1003600000F006F8DDF804E0DDE9022304B0704790
:100370002DE9F047089D8E4604468846002B4AD159
:100380008A42174662D9B2FA82F64EB1C6F120030C
:1003900001FA06F820FA03F3B74043EA0808B4402C
:1003A0004FEA174E1FFA87FCB8FBFEF1230C0EFB39
:1003B000118843EA084301FB0CF29A4209D9FB1861
:1003C00001F1FF3080F0EA809A4240F2E780023982
:1003D0003B449A1AA3B2B2FBFEF00EFB102243EA92
:1003E000024300FB0CFC9C4509D9FB1800F1FF32CD
:1003F00080F0D6809C4540F2D3803B44023840EAEE
:100400000140A3EB0C0300211DB1F3400022C5E91C
:100410000032BDE8F0878B4205D90DB1C5E9000176
:1004200000210846F5E7B3FA83F1002946D1734568
:1004300002D3824200F20581841A6EEB030201208E
:100440009046002DE5D0C5E90048E2E7002A00F01B
:100450009080B2FA82F6002E40F0A4808A1A030C33
:100460004FEA174E80B2BCB20121B2FBFEFC0EFB7C
:100470001C2243EA024304FB0CF29A4207D9FB1800
:100480000CF1FF3802D29A4200F2E080C4469B1A77
:10049000B3FBFEF20EFB123340EA034302FB04F40B
:1004A0009C4207D9FB1802F1FF3002D29C4200F2B5
:1004B000CA8002461B1B42EA0C40A5E7C1F1200698
:1004C0008B4022FA06F71F430EFA01F420FA06F3D6
:1004D0002EFA06FE4FEA1749234300FA01F81FFAE5
:1004E00087FCBEFBF9F01C0C09FB10EE44EA0E443D
:1004F00000FB0CFEA64502FA01F209D93C1900F1F5
:10050000FF3A80F09C80A64540F2998002383C4436
:10051000A4EB0E041FFA83FEB4FBF9F309FB1344AA
:100520004EEA044403FB0CFCA44508D93C1903F132
:10053000FF3E80F08280A4457FD9023B3C4443EAE1
:100540000040A4EB0C04A0FB02EC64457346E146BA
:1005500062D35FD05DB1B8EB030264EB090404FA27
:1005600006F622FA01F31E43CC40C5E900640021DF
:100570004FE7B1FBF2FC010C41EA0E4180B240EAC8
:1005800001423B4638463C46B846BE462026B1FBB3
:10059000F7F1A2EB080241EA0C4166E7014618E7D1
:1005A00010462CE7C6F120022EFA02F3B740B14004
:1005B00020FA02F24FEA174E0A43B3FBFEF8BCB230
:1005C0000EFB1833110C41EA034108FB04F9B0405B
:1005D00089454FEA104380B23ED9791808F1FF3CB3
:1005E00001D289451FD8A1EB0901B1FBFEF909FB36
:1005F00004F80EFB191192B242EA0142424529D297
:10060000BA1809F1FF31C4D24245C2D2A9F10201A0
:100610003A44BEE7F0459DD2BEEB02036CEB070CFB
:100620000138E14696E7A7EB09094944A8F1020C15
:10063000B1FBFEF909FB04F8DBE773467FE75046A0
:1006400066E70846FDE63B44023A33E7ACF1020CAC
:100650003B441CE749469CE7A1EB0901C446B1FBBA
:10066000FEF909FB04F8C4E7704700BF10F8012B3E
:1006700011F8013B012A28BF9A42F7D0D01A7047DF
:10068000034613F8012B002AFBD1181A01387047D2
:1006900008B50268034B9A4200D008BD00F0A8FCE0
:1006A000FBE700BF002C014072B6FEE700B597B033
:1006B0004422002105A805F0F0FB002300930193DC
:1006C0000293039304934FF4007002F0D3F8E0B95F
:1006D0001023059301230B9300230C9360220D92AA
:1006E0000F9305A800F06EFD88B90F230093002139
:1006F000019102914FF4806303930491684601F0E5
:100700009FF830B917B05DF804FBFFF7CDFFFFF796
:10071000CBFFFFF7C9FF08B500F05BFCFFF7C6FF92
:1007200000F00CF800F032F900F05AF904F00AFC7D
:1007300000F01CF904F018FCFEE70000F0B58DB0E5
:1007400000240794089409940A940B94494DEB6C87
:1007500043F00403EB64EB6C03F004030193019B8F
:10076000EB6C43F08003EB64EB6C03F080030293CB
:10077000029BEB6C43F00203EB64EB6C03F00203AF
:100780000393039BEB6C43F00803EB64EB6C03F007
:1007900008030493049BEB6C43F04003EB64EB6CA5
:1007A00003F040030593059B02F0EAF8EB6C43F07D
:1007B0000103EB64EB6C03F001030693069B2E4FE1
:1007C00022464FF48141384601F056FE2B4D224619
:1007D0004021284601F050FE4FF4005307934FF498
:1007E00088130893099407A9254801F04DFD4FF49B
:1007F000814307930126089609940A9407A938466D
:1008000001F042FD202307930894099407A9284684
:1008100001F03AFD40230793089609940A9407A92A
:10082000284601F031FD4FF4C07307930227089763
:10083000099403260A9608230B9307A9284601F07A
:1008400023FD4FF4E8530793089709940A960A2367
:100850000B9307A94FF0904001F016FD4FF4007381
:1008600007930894099407A94FF0904001F00CFDFC
:100870000DB0F0BD00100240000400480018004810
:100880000008004800B5A5B02A4B01932A4B0093FD
:100890002A4B2B4A2B49012006F0A2FB1FA806F089
:1008A00021FB294B1F93294B2093294B2193294B43
:1008B00022931FA806F024FB28B302A806F03EFBF3
:1008C0000DF12C0E0DF1080CBCE80F00AEE80F0086
:1008D000DCF80030CEF800300BAB0022114610A837
:1008E00006F03EFA10AB1C4A1C4909A806F082FA31
:1008F00006F0FCFF02461A4B09A91EA806F0B6FA3C
:1009000000231D930EE0A221164805F071FAD4E7EA
:10091000C321154805F06CFA1D9B01331D930A2075
:1009200004F098FB00221DA91EA806F0F5F9002886
:10093000EED1F1E7A15B0008675B0008595B000896
:10094000415B00082C310020DD590008FD590008EA
:100950001D5A00085D5A00086800010844FD00089F
:1009600050FD00081CFD000864FD000808B5044A9D
:100970000021044804F014FB034B186008BD00BFBD
:10098000A8020108850800086830002000B583B07F
:10099000124B9A6C42F004029A649A6C02F00402C0
:1009A0000092009A9A6C42F001029A649B6C03F0E8
:1009B00001030193019B002205210B2002F03CF86A
:1009C0000B2002F049F8002205210C2002F034F837
:1009D0000C2002F041F803B05DF804FB0010024067
:1009E00008B51748174B03604FF4E1334360002309
:1009F0008360C36003610C2242618361C36103624F
:100A00004362836202F077FE70B900210C4802F065
:100A10006BFF60B900210A4802F08BFF50B908480B
:100A200002F043FF48B908BDFFF73EFEEDE7FFF7D0
:100A30003BFEEFE7FFF738FEF1E7FFF735FEF2E7A1
:100A40002C3100200048004030B5ADB004460021F4
:100A50002791289129912A912B91942202A805F09F
:100A60001CFA2268374B9A4201D02DB030BD0423C6
:100A7000029302A801F09AF9002859D1324B9A6DDD
:100A800042F480229A659A6D02F480220092009AC4
:100A9000DA6C42F00802DA64DB6C03F008030193BD
:100AA000019B4FF440732793022328930025299537
:100AB00003232A9307232B9327A9244801F0E4FB5F
:100AC0002348244B03601C2343608560C56080235A
:100AD0000361456185612023C3614FF44053036284
:100AE00001F02EFD38BB1A4BC4F880309C621A48C6
:100AF0001A4B03601D234360102383600023C360EF
:100B000080220261436183612023C3614FF440531B
:100B1000036201F015FD88B90F4BE3679C62002268
:100B20000521272001F088FF272001F095FF9CE791
:100B3000FFF7BAFDA2E7FFF7B7FDD4E7FFF7B4FD73
:100B4000EAE700BF0048004000100240000C0048E7
:100B5000CC300020080002406C3000201C00024015
:100B6000FEE7FEE7FEE7FEE7FEE7704708B502484E
:100B700001F009FE08BD00BFCC30002008B50248D6
:100B800001F001FE08BD00BF6C30002008B502482E
:100B900000F0C2F808BD00BFC031002008B502480F
:100BA00002F0C2F808BD00BF2C31002000B583B0B0
:100BB0000D4B1A6E42F001021A661A6E02F0010223
:100BC0000092009A9A6D42F080529A659B6D03F0F4
:100BD00080530193019B00220F216FF0010001F06F
:100BE0002BFF03B05DF804FB0010024030B589B064
:100BF00004461E4B1A6E42F400621A661B6E03F422
:100C000000630193019B02A903A800F045FF00F0D7
:100C100031FF174AA2FB00239B0C013B1548164AE3
:100C2000026040F2E732C2604360002303618360E8
:100C3000836100F09BF9054610B1284609B030BD2C
:100C40000C4800F01FF805460028F6D1192001F0E5
:100C500003FF0F2C01D90125EFE7002221461920BF
:100C600001F0EAFE054B1C60E7E700BF0010024000
:100C700083DE1B43C0310020002C01400400002013
:100C80007047000090F83D30DBB2012B36D10223D3
:100C900080F83D300268D36843F00103D3600368F5
:100CA000194A93421CD0B3F1804F19D0A2F5943267
:100CB000934215D002F58062934211D002F5806212
:100CC00093420DD002F59432934209D002F540626E
:100CD000934205D01A6842F001021A600020704762
:100CE00099680A4A0A40062A0AD0B2F5803F09D01C
:100CF0001A6842F001021A60002070470120704714
:100D00000020704700207047002C014007000100C0
:100D1000704770477047704770B504460368DE68D7
:100D20001D6915F0020F10D016F0020F0DD06FF0F4
:100D300002021A610123037703689B6913F0030F12
:100D400064D0FFF7E6FF0023237715F0040F12D0DD
:100D500016F0040F0FD023686FF004021A6102230B
:100D6000237723689B6913F4407F55D02046FFF713
:100D7000D0FF0023237715F0080F12D016F0080FCC
:100D80000FD023686FF008021A61042323772368C9
:100D9000DB6913F0030F46D02046FFF7BAFF0023AC
:100DA000237715F0100F12D016F0100F0FD0236814
:100DB0006FF010021A61082323772368DB6913F4AC
:100DC000407F37D02046FFF7A4FF0023237715F09C
:100DD000010F02D016F0010F33D115F4025F02D0DB
:100DE00016F0800F35D115F4807F02D016F0800FF9
:100DF00037D115F0400F02D016F0400F39D115F061
:100E0000200F02D016F0200F3BD170BDFFF780FFFE
:100E10002046FFF77FFF96E72046FFF779FF204641
:100E2000FFF778FFA5E72046FFF772FF2046FFF7A0
:100E300071FFB4E72046FFF76BFF2046FFF76AFF1C
:100E4000C3E723686FF001021A612046FFF720FC18
:100E5000C3E723686FF402521A61204600F0B7F826
:100E6000C1E723686FF480721A61204600F0B0F881
:100E7000BFE723686FF040021A612046FFF74BFF7F
:100E8000BDE723686FF020021A61204600F09EF84B
:100E9000BBE700000368344A904212D0B0F1804FA3
:100EA0000FD0A2F5943290420BD002F580629042AE
:100EB00007D002F58062904203D002F5943290424E
:100EC00003D123F070034A681343274A90421ED08F
:100ED000B0F1804F1BD0A2F59432904217D002F5AA
:100EE0008062904213D002F5806290420FD002F5EA
:100EF000943290420BD002F54062904207D002F546
:100F00008062904203D002F58062904203D123F4C4
:100F10004073CA68134323F080034A691343036094
:100F20008B68C3620B6883620F4B98420FD003F546
:100F3000006398420BD003F54063984207D003F555
:100F40008063984203D003F58063984201D10B6916
:100F5000036301234361036913F0010F03D00369A5
:100F600023F0010303617047002C014060B310B50A
:100F7000044690F83D3013B3022384F83D302146F7
:100F800051F8040BFFF786FF012384F8483084F8FA
:100F90003E3084F83F3084F8403084F8413084F8A3
:100FA000423084F8433084F8443084F8453084F883
:100FB000463084F8473084F83D30002010BD80F87A
:100FC0003C30FFF75DFED7E7012070477047704760
:100FD000704710B5032001F01DFD0F20FFF706FE3E
:100FE00010B10124204610BD0446FFF7DFFDF9E7EC
:100FF000034B1B78034A11680B441360704700BF12
:10100000000000200C320020014B1868704700BF20
:101010000C3200201A4BDB6803F00303022B16D0BE
:10102000032B16D0012B29D1154B1B6813F0080F89
:1010300008D1134BD3F89430C3F30323114A52F869
:10104000231007E00E4B1B68C3F30313F6E70E49AA
:1010500000E00E490A4AD368C3F303130133D06892
:10106000C0F3062001FB00F0B0FBF3F0D368C3F33C
:10107000416301335B00B0FBF3F070470021E9E707
:1010800000100240F40201080024F40000127A006B
:1010900030B583B004461F4B9B6D13F0805F0AD0C0
:1010A00001F0D6FBB0F5007F16D07F2C1ED8702C37
:1010B0002BD000211BE0174DAB6D43F08053AB6587
:1010C000AB6D03F080530193019B01F0C1FBAB6D4D
:1010D00023F08053AB65E5E7802C03D9A02C03D91E
:1010E000022104E0002102E0012100E002210A4A7D
:1010F000136823F00F030B431360136803F00F030F
:101100008B4204D1002003B030BD0121EFE7012064
:10111000F9E700BF0010024000200240254A936812
:10112000D26802F0030213F00C0309D00C2B05D097
:10113000042B3BD0082B3BD000200FE0012AF7D135
:101140001C4A126812F0080F0CD11A4AD2F89420E7
:10115000C2F30322184951F8220013B10C2B06D018
:1011600000207047134A1268C2F30312F2E7114BD2
:10117000DB6803F00303022B16D0032B00D10F48CA
:101180000C49CA68C2F303120132CB68C3F30623C9
:1011900000FB03F3B3FBF2F3C868C0F34160013016
:1011A0004000B3FBF0F070470548E9E7044870479A
:1011B0000248704700100240F402010800127A0051
:1011C0000024F400002800F02283F0B583B0044628
:1011D000964B9D6805F00C05DE6806F00306036873
:1011E00013F0100F5AD0E5B10C2D18D0A369002BC5
:1011F00000F0BB808D4A136843F001031360FFF7D2
:1012000003FF0746894B1B6813F0020F40F09A80DA
:10121000FFF7FAFEC01B0228F4D9032002E3012ED7
:10122000E4D1824B1B6813F0020F03D0A369002B9B
:1012300000F0EF82206A7D4B1B6813F0080F5BD033
:101240007A4B1B6803F0F00398425CD8774B1A681E
:1012500042F008021A601A6822F0F002216A0A437A
:101260001A605A6822F47F42E16942EA01225A6018
:10127000002D60D0FFF752FF6C4B9B68C3F3031344
:101280006B4AD35C03F01F03D8406A4B18606A4B6B
:101290001868FFF7ABFC002840F0C482236813F005
:1012A000010F00F08180082D75D00C2D71D063687E
:1012B000B3F5803F00F09780B3F5A02F00F0998040
:1012C0005A4B1A6822F480321A601A6822F480227B
:1012D0001A606368002B00F09980FFF795FE0746BF
:1012E000524B1B6813F4003F5ED1FFF78DFEC01B0D
:1012F0006428F5D9032095E24C4BD3F894301B09B0
:1013000003F0F003A0E7FFF7C3FE002840F083825C
:10131000464B1A6842F008021A601A6822F0F0027E
:10132000216A0A431A605A6822F47F42E16942EA5C
:1013300001225A609EE7206AFFF7AAFE002899D092
:1013400001206FE2394B1A6842F008021A601A68ED
:1013500022F0F002216A0A431A605A6822F47F429E
:10136000E16942EA01225A6098E7304A136823F0A3
:1013700001031360FFF748FE07462C4B1B6813F070
:10138000020F8BD0FFF740FEC01B0228F5D90320C7
:1013900048E2032E8BD1254B1B6813F4003F03D08A
:1013A0006368002B00F03982236813F0020F58D0D5
:1013B000042D45D00C2D41D0E368002B77D01B4A7B
:1013C000136843F480731360FFF71EFE0646174B45
:1013D0001B6813F4806F61D1FFF716FE801B022893
:1013E000F5D903201EE2114A136843F480331360D9
:1013F0006FE703F18043A3F53C331A6842F480227F
:101400001A601A6842F480321A6062E7FFF7FCFD46
:101410000746064B1B6813F4003FC5D0FFF7F4FDE9
:10142000C01B6428F5D90320FCE100BF0010024076
:101430002C0301080800002004000020022EBBD16C
:10144000A74B1B6813F4806F03D0E368002B00F0F8
:10145000E681A34A536823F0FE43216943EA01630E
:101460005360236813F0080F4CD063699BB39C4A08
:10147000D2F8943043F00103C2F89430FFF7C4FD72
:101480000646974BD3F8943013F0020F3AD1FFF78A
:10149000BBFD801B0228F4D90320C3E1904A5368A6
:1014A00023F0FE43216943EA01635360D9E78C4A84
:1014B000136823F480731360FFF7A6FD0646884B7C
:1014C0001B6813F4806FCCD0FFF79EFD801B0228B1
:1014D000F5D90320A6E1824AD2F8943023F0010323
:1014E000C2F89430FFF790FD06467D4BD3F8943058
:1014F00013F0020F06D0FFF787FD801B0228F4D9F6
:1015000003208FE1236813F0040F7AD0744B9B6D96
:1015100013F0805F36D1724B9A6D42F080529A651B
:101520009B6D03F080530193019B01266D4B1B685B
:1015300013F4807F28D0A368012B39D0052B3FD02E
:10154000674BD3F8902022F00102C3F89020D3F823
:10155000902022F00402C3F89020A368002B3DD015
:10156000FFF752FD07465E4BD3F8903013F0020FA1
:1015700046D1FFF749FDC01B41F288339842F2D9AA
:1015800003204FE10026D1E7564A136843F48073E5
:101590001360FFF739FD0746524B1B6813F4807F39
:1015A000C9D1FFF731FDC01B0228F5D9032039E16D
:1015B0004B4AD2F8903043F00103C2F89030CCE7A8
:1015C000474BD3F8902042F00402C3F89020D3F8A0
:1015D000902042F00102C3F89020BEE7FFF714FD0F
:1015E00007463F4BD3F8903013F0020F08D0FFF7B7
:1015F0000BFDC01B41F288339842F2D9032011E160
:10160000E6B9236813F0200F35D0636AE3B1344A9A
:10161000D2F8983043F00103C2F89830FFF7F4FC99
:1016200006462F4BD3F8983013F0020F23D1FFF763
:10163000EBFC801B0228F4D90320F3E0284A936DC9
:1016400023F080539365DCE7254AD2F8983023F0E5
:101650000103C2F89830FFF7D7FC0646204BD3F8B9
:10166000983013F0020F06D0FFF7CEFC801B022843
:10167000F4D90320D6E0A36A002B00F0D280022B1D
:1016800017D00C2D00F0D480154A136823F0807316
:101690001360FFF7B9FC0446114B1B6813F0007F81
:1016A00000F0AE80FFF7B0FC001B0228F4D9032045
:1016B000B8E00B4BDB6803F00301E26A914213D000
:1016C0000C2D00F0B180064B1B6813F0806F40F0CA
:1016D000AD80034B1B6813F0805F2FD00120A1E089
:1016E000001002400070004003F0F002216B01394D
:1016F000B2EB011FE4D103F4FE42616BB2EB012FA8
:10170000DED103F07842A16BB2EBC16FD8D103F404
:10171000C001E26B5208013AB1EB425FD0D103F055
:10172000C063226C5208013AB3EB426FC8D1414BFF
:101730001B6813F0007F49D0002073E03D4A136816
:1017400023F080731360FFF75FFC0546394B1B687D
:1017500013F0007F06D0FFF757FC401B0228F5D995
:1017600003205FE0334AD36833491940E36A206BB2
:10177000013843EA0013606B43EA0023E06B400842
:10178000013843EA4053206C4008013843EA406383
:10179000A06B43EAC0631943D160136843F08073C0
:1017A0001360D36843F08073D360FFF72DFC0446C9
:1017B000204B1B6813F0007F06D1FFF725FC001BB0
:1017C0000228F5D903202DE000202BE0194B1A68E0
:1017D00042F080721A60DA6842F08072DA60FFF7D5
:1017E00013FC0446134B1B6813F0007F06D1FFF770
:1017F0000BFC031B022BF5D9032013E0002011E0A2
:101800000C4AD1680D4B0B40D36000200AE0012048
:101810007047012006E0012004E0012002E00120E1
:1018200000E0002003B0F0BD0120FBE70120F9E754
:101830000120F7E7001002400C809D01FCFFEEFE46
:10184000002800F0EA80F8B50D460446774B1B6887
:1018500003F00F038B420BD2744A136823F00F037B
:101860000B431360136803F00F038B4240F0D780E3
:10187000236813F0020F0CD0A2686D4B9B6803F035
:10188000F0039A4205D96A498B6823F0F0031A43A2
:101890008A60236813F0010F6ED06368032B0DD0AC
:1018A000022B25D0002B3CD103F1804303F50433F8
:1018B0001B6813F0020F21D10120A7E05C4B1B68CD
:1018C00013F0007F01D10120A0E0FFF7A3FB594BEB
:1018D00098422DD9564B9B6813F0F00F2AD1544AE9
:1018E000936823F0F00343F080039360802724E0A3
:1018F0004F4B1B6813F4003F00F09380FFF70EFC82
:101900004C4B984218D94A4B9B6813F0F00F2FD1DB
:10191000474A936823F0F00343F0800393608027E5
:101920000BE0434B1B6813F4806FE7D101206DE09F
:10193000002702E0002700E000273D4A936823F0DB
:10194000030361680B439360FFF75EFB0646384B69
:101950009B6803F00C036268B3EB820F0AD0FFF7B9
:1019600053FB801B41F288339842F0D903204DE0AD
:101970000027E2E7002F4AD1236813F0020F0CD0B2
:10198000A2682B4B9B6803F0F0039A4205D22849CA
:101990008B6823F0F0031A438A60244B1B6803F022
:1019A0000F03AB420AD9214A136823F00F032B43DC
:1019B0001360136803F00F03AB4234D1236813F0B4
:1019C000040F06D01A4A936823F4E063E1680B43DE
:1019D0009360236813F0080F07D0154A936823F427
:1019E0006053216943EAC1039360FFF797FB104BF3
:1019F0009B68C3F30313104AD35C03F01F03D84062
:101A00000E4B18600E4B1868FFF7F0F8F8BD084A47
:101A1000936823F0F0039360AEE701207047012044
:101A2000F4E70120F2E70120F0E700BF00200240C8
:101A30000010024000B4C4042C0301080800002078
:101A400004000020014B1868704700BF0800002008
:101A500008B5FFF7F7FF054B9B68C3F30223044A61
:101A6000D35C03F01F03D84008BD00BF0010024044
:101A70002403010808B5FFF7E5FF054B9B68C3F396
:101A8000C223044AD35C03F01F03D84008BD00BF43
:101A900000100240240301080F2303600B4B9A68D7
:101AA00002F0030242609A6802F0F00282609A68D3
:101AB00002F4E062C2609B68DB0803F4E063036148
:101AC000034B1B6803F00F030B60704700100240CC
:101AD00000200240F8B504460E46554BDB6813F073
:101AE000030F0ED0524BDB6803F0030302689342EE
:101AF00002D001252846F8BD002A00F09480002578
:101B000015E00368022B53D0032B58D0012B40F073
:101B10008C80474A126812F0020F5CD04449CA68B0
:101B200022F003021343CB600025002DE2D1404A8E
:101B3000136823F080531360FFF766FA07463C4BA7
:101B40001B6813F0005F05D0FFF75EFAC31B022B82
:101B5000F5D90325002DCDD1002E3ED1344843695F
:101B6000344A1A40A168E368DB0643EA012361684E
:101B7000013943EA01131A4342612D4A136843F0C5
:101B800080531360FFF740FA0646294B1B6813F099
:101B9000005F05D1FFF738FA801B0228F5D903252D
:101BA000002DA7D1224A5369A1690B435361A1E7D4
:101BB0001F4A126812F4806FB0D101259AE71C4ABF
:101BC000126812F4003FA9D1194A126812F4802F4A
:101BD000A4D101258EE70125A7E7012E11D01448D5
:101BE0004369154A1A40A16863695B08013B5B06BB
:101BF00043EA01236168013943EA01131A43426150
:101C0000BBE70B4843690D4A1A40A16823695B088A
:101C1000013B5B0543EA01236168013943EA011393
:101C20001A434261A9E7012564E7012562E700BF85
:101C3000001002400F80FF070F80FFF90F809FFF09
:101C4000F8B504460E46554BDB6813F0030F0ED073
:101C5000524BDB6803F003030268934202D0012574
:101C60002846F8BD002A00F09480002515E003689E
:101C7000022B53D0032B58D0012B40F08C80474AC5
:101C8000126812F0020F5CD04449CA6822F00302C5
:101C90001343CB600025002DE2D1404A136823F0A6
:101CA00080631360FFF7B0F907463C4B1B6813F0E5
:101CB000006F05D0FFF7A8F9C31B022BF5D9032548
:101CC000002DCDD1002E3ED134480369344A1A404C
:101CD000A168E368DB0643EA01236168013943EA4E
:101CE00001131A4302612D4A136843F080631360A5
:101CF000FFF78AF90646294B1B6813F0006F05D1E0
:101D0000FFF782F9801B0228F5D90325002DA7D102
:101D1000224A1369A1690B431361A1E71F4A1268A4
:101D200012F4806FB0D101259AE71C4A126812F4B0
:101D3000003FA9D1194A126812F4802FA4D10125BD
:101D40008EE70125A7E7012E11D014480369154A33
:101D50001A40A16863695B08013B5B0643EA012303
:101D60006168013943EA01131A430261BBE70B487A
:101D700003690D4A1A40A16823695B08013B5B05B2
:101D800043EA01236168013943EA01131A430261FE
:101D9000A9E7012564E7012562E700BF00100240C2
:101DA0000F80FF070F80FFF90F809FFF2DE9F041A3
:101DB00082B00446036813F4006F34D0C36E402B26
:101DC00013D00BD813B3202B05D100212030FFF7FF
:101DD00081FE06461FE001273E4626E0602B1ED00E
:101DE000802B1ED001273E461FE0624AD36843F491
:101DF0008033D36000265F4AD2F89C3023F0E003A2
:101E0000E16E0B43C2F89C3000270EE00021043045
:101E1000FFF716FF0646002EEDD0374605E00026F8
:101E2000E9E70026E7E700273E46236813F4805FD2
:101E300032D0236FB3F5007F17D00DD82BB3B3F595
:101E4000807F06D1002104F12000FFF743FE064603
:101E500010E001273E461FE0B3F5407F0AD0B3F5FE
:101E6000806F07D001273E4616E0424AD36843F40C
:101E70008033D3607EB93F4AD2F89C3023F4E063CC
:101E8000216F0B43C2F89C3006E00021201DFFF7B4
:101E9000D7FE0646EEE73746236813F4003F72D0BC
:101EA000344B9B6D13F0805F4ED1324B9A6D42F0F4
:101EB00080529A659B6D03F080530193019B4FF014
:101EC00001082D4A136843F480731360FFF79CF8F0
:101ED0000546294B1B6813F4807F05D1FFF794F862
:101EE000401B0228F5D90326002E47D1214BD3F8F9
:101EF000903013F4407319D0D4F890209A4212D045
:101F00001C4AD2F8903023F44073D2F8901041F478
:101F10008031C2F89010D2F8901021F48031C2F8CC
:101F20009010C2F8903013F0010F10D1002E40F045
:101F30005A81104AD2F8903023F44073D4F89010AC
:101F40000B43C2F890301AE04FF00008B9E7FFF7F2
:101F50005BF80546074BD3F8903013F0020FE5D13C
:101F6000FFF752F8401B41F288339842F2D903261A
:101F7000DCE700BF00100240007000403746B8F1B7
:101F8000000F40F03281236813F0010F08D0B64AE9
:101F9000D2F8883023F00303E16B0B43C2F888309A
:101FA000236813F0020F08D0AF4AD2F8883023F02C
:101FB0000C03216C0B43C2F88830236813F0040F24
:101FC00008D0A94AD2F8883023F03003616C0B4363
:101FD000C2F88830236813F0080F08D0A24AD2F85C
:101FE000883023F0C003A16C0B43C2F8883023680B
:101FF00013F0100F08D09C4AD2F8883023F44073B5
:10200000E16C0B43C2F88830236813F0200F08D02E
:10201000954AD2F8883023F44063216D0B43C2F80F
:102020008830236813F4007F08D08F4AD2F88830B4
:1020300023F44023616E0B43C2F88830236813F405
:10204000806F08D0884AD2F8883023F44013A16EFC
:102050000B43C2F88830236813F0400F08D0824A3F
:10206000D2F8883023F44053616D0B43C2F88830B6
:10207000236813F0800F08D07B4AD2F8883023F40D
:102080004043A16D0B43C2F88830236813F4807F6E
:1020900008D0754AD2F8883023F44033E16D0B4301
:1020A000C2F88830236813F4801F08D06E4AD2F833
:1020B0009C3023F00303216E0B43C2F89C3023684D
:1020C00013F4005F11D0684AD2F8883023F04063DF
:1020D000616F0B43C2F88830636FB3F1006F00F09B
:1020E0008A80B3F1806F00F08B80236813F4002F97
:1020F0001FD0A36FB3F5804F00F08B805A4AD2F8FF
:102100009C3023F48043C2F89C30D2F8883023F00E
:102110004063A16F0B43C2F88830A36FB3F1006F27
:102120007FD0B3F5804F00F08280B3F1806F00F074
:102130008480236813F4802F0FD04B4AD2F8883064
:1021400023F04063E16F0B43C2F88830E36FB3F1D3
:10215000006F7BD0B3F1806F7DD0236813F4804F84
:102160000ED0414AD2F8883023F04053D4F8801082
:102170000B43C2F88830D4F88030B3F1805F75D05B
:10218000236813F4803F09D0374AD2F89C3023F0FB
:102190000403D4F884100B43C2F89C30236813F472
:1021A000001F09D0304AD2F89C3023F01803D4F82D
:1021B00088100B43C2F89C30236813F0807F0ED048
:1021C000294AD2F89C3023F44013D4F88C100B43E6
:1021D000C2F89C30D4F88C30B3F5001F4ED038468E
:1021E00002B0BDE8F0813746C9E61F4A936D23F07F
:1021F00080539365C7E6D36843F48013D36074E7D4
:102200000121201DFFF71CFD00283FF46EAF07469B
:102210006BE7154AD2F89C3043F48043C2F89C30F7
:102220007BE7114AD36843F48013D36081E70E4AF9
:10223000D36843F48033D3607BE70121201DFFF78F
:10224000FFFC00283FF475AF074672E7D36843F4FC
:102250008013D36081E70121201DFFF7F1FC0028E6
:102260003FF47BAF074678E7001002400221201DB3
:10227000FFF7E6FC002883D0074681E7D36843F4E4
:102280008013D360ABE700BFF0B583B0002362E0FA
:1022900085685E000324B44025EA0405CC68B44098
:1022A0002C438460456825EA0C054C68C4F300148F
:1022B0009C402C43446060E0DD08083550F8254020
:1022C00003F0070C4FEA8C0C4FF00F0E0EFA0CFEC9
:1022D00024EA0E0E0C6904FA0CF444EA0E0440F8E9
:1022E000254061E0072400E0002404FA0EF42C43AA
:1022F0000CF1020C5C4D45F82C405C4CA568D443B5
:1023000025EA02064F6817F4801F01D042EA05064D
:10231000564DAE60ED6804EA05064F6817F4001FDD
:1023200001D042EA0506514DEE606D6804EA0506EB
:102330004F6817F4003F01D042EA05064B4D6E602E
:102340002D682C404E6816F4803F01D042EA050407
:10235000464A146001330A6832FA03F400F08180BF
:102360004FF0010C0CFA03FC1CEA0202F2D04C689C
:1023700004F00304013C012C8AD94C6804F00304E6
:10238000032C0CD0C4685D004FF0030C0CFA05FC64
:1023900024EA0C0C8C68AC4044EA0C04C4604C6821
:1023A00004F00304022C87D004684FEA430E4FF078
:1023B000030C0CFA0EFC24EA0C0C4C6804F0030429
:1023C00004FA0EF444EA0C0404604C6814F4403F30
:1023D000C0D0274C256E45F001052566246E04F01B
:1023E00001040194019C4FEA930C0CF102051E4C70
:1023F00054F8255003F0030E4FEA8E0E0F2404FA12
:102400000EF425EA0405B0F1904F3FF46DAF194C7E
:10241000A0421AD004F58064A04218D004F580646C
:10242000A04216D004F58064A04214D004F5806464
:10243000A04212D004F58064A04210D004F580645C
:10244000A0423FF44FAF08244FE701244DE7022498
:102450004BE7032449E7042447E7052445E706241E
:1024600043E703B0F0BD00BF00000140000401409D
:1024700000100240000400480AB181617047816287
:10248000704730B4C46C056D6560446D14B1846DE3
:10249000C56D6560446C04F01C0C012404FA0CF456
:1024A000056C6C60046863608368102B05D003685A
:1024B00099600368DA6030BC704703689A6003680B
:1024C000D960F8E70368104A934215D8426C22F0AD
:1024D000030202F1804202F502328264DBB2083B61
:1024E0000A4AA2FB03230A4AC264C3F3041301226B
:1024F00002FA03F303657047426C22F00301054AB8
:102500000A448264EAE700BF07040240CDCCCCCC89
:10251000800802401C0802400379074A1A449200CE
:102520004265064A8265013B03F00303012202FA79
:1025300003F3C365704700BF3F82001040090240AB
:10254000002859D010B5044602682C4B9A423BD85B
:102550002B4B13442B49A1FB03131B099B00436422
:10256000294B0364022384F8253011686FF30E11A0
:10257000A368E06803432069034360690343A069DB
:102580000343E0690343206A03430B43136020467F
:10259000FFF798FFA368B3F5804F20D0A36C227992
:1025A0001A60E36C226D5A606368013B032B19D9F2
:1025B00000236365A365E3650020E063012384F8DD
:1025C000253084F8240010BD104B13440D49A1FBA5
:1025D00003131B099B0043640D4B0364C2E70023F4
:1025E0006360DBE72046FFF797FF636D00221A6008
:1025F000A36DE26D5A60DFE70120704707040240D7
:10260000F8FFFDBFCDCCCCCC00000240F8FBFDBFF5
:102610000004024038B5044690F82400012841D057
:10262000012084F8240094F82500C0B2012804D0C9
:10263000002384F82430022038BD022084F82500CD
:102640000020E0632568286820F00100286020460B
:10265000FFF717FF236BD3B12268136843F00E0313
:102660001360A36C1A6812F4803F03D01A6842F416
:1026700080721A60636D1BB11A6842F480721A602E
:102680002268136843F0010313600020D4E7226836
:10269000136823F0040313602268136843F00A03ED
:1026A0001360DEE70220C7E790F82530DBB2022B8B
:1026B00006D00423C363002380F824300120704730
:1026C0000268136823F00E031360826C136823F40E
:1026D000807313600268136823F001031360436C76
:1026E00003F01C02016C012393404B60C36C026D2C
:1026F0005A60436D33B11A6822F480721A60836D98
:10270000C26D5A60012380F82530002380F8243000
:102710001846704708B590F82530DBB2022B03D07D
:102720000423C363012008BD0268136823F00E036D
:1027300013600268136823F001031360826C13684E
:1027400023F480731360436C03F01C02016C0123BB
:1027500093404B60C36C026D5A60436D33B11A688D
:1027600022F480721A60836DC26D5A60012380F872
:102770002530002380F82430836B13B19847002064
:10278000D1E70020CFE738B5036C196804682568E5
:10279000436C03F01C0304229A400A4215D015F042
:1027A000040F12D0236813F0200F03D1236823F005
:1027B00004032360436C03F01C02016C0423934068
:1027C0004B60036B03B1984738BD02229A400A421E
:1027D0001CD015F0020F19D0236813F0200F06D17A
:1027E000236823F00A032360012380F82530436C1B
:1027F00003F01C02016C022393404B60002380F81D
:102800002430C36A002BDFD09847DDE7082202FAA4
:1028100003F30B42D8D015F0080FD5D0236823F06E
:102820000E032360436C03F01C03016C012202FAC7
:1028300003F34B60C26380F82520002380F8243026
:10284000436B002BC0D09847BEE7C06B70470000B9
:10285000074B186800F4C060B0F5806F04D0D3F85F
:10286000800010F4807000D170474FF40070FBE7D7
:1028700000700040002836D13E4B1B6803F4C06353
:10288000B3F5806F08D03B4AD2F8803023F48073D0
:10289000C2F8803000207047364AD2F8803023F4E6
:1028A0008073C2F88030136823F4C06343F400736C
:1028B0001360314B1B68322202FB03F32F4AA2FB49
:1028C00003239B0C013300E0013B2A4A526912F4B6
:1028D000806F01D0002BF7D1264B5B6913F4806F1A
:1028E00044D100207047B0F5007F08D0214A13681A
:1028F00023F4C06343F480631360002070471D4BD2
:102900001B6803F4C063B3F5806F08D0194AD2F88E
:10291000803043F48073C2F8803000207047154A3D
:10292000D2F8803043F48073C2F88030136823F407
:10293000C06343F4007313600F4B1B68322202FB29
:1029400003F30E4AA2FB03239B0C013300E0013B7F
:10295000084A526912F4806F01D0002BF7D1054B61
:102960005B6913F4806F03D1002070470320704728
:1029700003207047007000400800002083DE1B43E6
:10298000024A536843F4007353607047007000407C
:10299000002807DB00F01F02400901239340024A90
:1029A00042F82030704700BF00E100E0002808DB5B
:1029B0000901C9B200F1604000F5614080F80013E0
:1029C000704700F00F000901C9B2014B195470475C
:1029D00014ED00E000B500F00700C0F1070CBCF1F9
:1029E000040F28BF4FF0040C031D062B0FD9C31E84
:1029F0004FF0FF3E0EFA0CF021EA000199400EFA6A
:102A000003FE22EA0E0241EA02005DF804FB002305
:102A1000EEE70000074AD36823F4E0631B041B0CB5
:102A2000000200F4E060034343F0BF6343F400336B
:102A3000D360704700ED00E010B50446054BD86840
:102A4000C0F30220FFF7C6FF01462046FFF7AEFFA6
:102A500010BD00BF00ED00E008B5FFF799FF08BD0D
:102A6000026852E8003F23F0C00342E80031002929
:102A7000F6D1026802F1080353E8003F23F4000393
:102A8000083242E800310029F3D12023C0F8883011
:102A90007047026852E8003F23F4907342E8003127
:102AA0000029F6D1026802F1080353E8003F23F041
:102AB000805323F00103083242E800310029F1D1AC
:102AC000C36E012B06D02023C0F88C300023C366D0
:102AD00043677047026852E8003F23F0100342E862
:102AE00000310029F6D1EEE71346D0F88820202ADD
:102AF0003DD110B5044600293BD0002B3BD00165E9
:102B0000A0F85430A0F856300022C0F890202122BE
:102B1000C0F88820C26FCAB11849D162C26F184983
:102B20001163C26F17495163C26F0021916302683C
:102B30002832016DC06FFFF76DFD38B11023C4F866
:102B400090302023C4F8883001200FE02368402211
:102B50001A62226802F1080353E8003F43F0800341
:102B6000083242E800310029F3D1002010BD0220D4
:102B700070470120FAE70120F8E700BF3D2C00086C
:102B8000AB2C0008BB2C000838B50446D0F88820D0
:102B9000D0F88C5003689B6813F0800F01D0212A75
:102BA00008D023689B6813F0400F44D0222D20D01A
:102BB000002041E0226802F1080353E8003F23F0BF
:102BC0008003083242E800310029F3D1E06F10B1F0
:102BD000FFF76AFD18B92046FFF742FFE1E7E06F13
:102BE000FFF733FE2028F6D11023C4F890300320DD
:102BF00022E0226802F1080353E8003F23F040037B
:102C0000083242E800310029F3D1D4F8800010B135
:102C1000FFF74AFD20B92046FFF73BFF00200BE0FD
:102C2000D4F88000FFF711FE2028F4D11023C4F857
:102C30009030032000E0002038BD704708B50346FF
:102C4000806A1B681B6813F0200F18D10023A0F8BE
:102C50005630026802F1080353E8003F23F0800376
:102C6000083242E800310029F3D1026852E8003FFF
:102C700043F0400342E800310029F6D108BDFFF7D8
:102C8000DCFFFBE708B5026852E8003F23F0400391
:102C900042E800310029F6D12023C0F88830002313
:102CA0008367FFF7CAFF08BD704708B5806AFFF762
:102CB000FBFF08BD70477047704738B5846AD4F889
:102CC0008820D4F88C5023689B6813F0800F01D0C3
:102CD000212A10D023689B6813F0400F01D0222DC9
:102CE00010D0D4F8903043F01003C4F89030204650
:102CF000FFF7E2FF38BD0023A4F856302046FFF767
:102D0000AFFEE7E70023A4F85E302046FFF7C1FEE0
:102D1000E7E708B5806A0023A0F85E30A0F85630D7
:102D2000FFF7CAFF08BD704770B504460268D36953
:102D30001068916840F60F0C13EA0C0F0DD113F0D8
:102D4000200F10D010F0200F02D111F0805F0AD0B8
:102D5000636F93B3204698472FE09D4D0D402DD1D2
:102D60009C4E30422AD1E56E012D00F0C08013F454
:102D7000801F03D011F4800F40F06C8113F0800F9E
:102D800007D010F0800F40F06C8111F4000F40F07C
:102D9000688113F0400F03D010F0400F40F06881BD
:102DA00013F4000F03D010F0804F40F0658113F052
:102DB000807F02D00028C0F2638170BD13F0010F44
:102DC00009D010F4807F06D001261662D4F8902036
:102DD0003243C4F8902013F0020F0BD011F0010F12
:102DE00008D0226802261662D4F8902042F004022D
:102DF000C4F8902013F0040F0BD011F0010F08D08D
:102E0000226804261662D4F8902042F00202C4F828
:102E1000902013F0080F0BD010F0200F00D13DB11F
:102E2000226808251562D4F890202A43C4F890201F
:102E300013F4006F0CD010F0806F09D022684FF4AB
:102E400000651562D4F8902042F02002C4F890206A
:102E5000D4F89020002AB0D013F0200F09D010F041
:102E6000200F02D111F0805F03D0636F0BB12046B9
:102E70009847D4F8902023689B6813F0400F02D144
:102E800012F0280F2CD02046FFF703FE23689B6822
:102E900013F0400F20D0226802F1080353E8003FEE
:102EA00023F04003083242E800310029F3D1D4F87E
:102EB00080306BB1484A9A63D4F88000FFF72AFC4F
:102EC00000283FF47AAFD4F88000836B984774E70A
:102ED0002046FFF7F1FE70E72046FFF7EDFE6CE7B6
:102EE0002046FFF7E9FE0023C4F8903065E713F0B1
:102EF000100F3FF43CAF10F0100F3FF438AF102329
:102F0000136223689B6813F0400F67D0D4F88010D9
:102F10000A6853689BB2002B4AD0B4F85C00984210
:102F200046D9A4F85E300B681B6813F0200F32D12D
:102F3000226852E8003F23F4807342E80031002900
:102F4000F6D1226802F1080353E8003F23F00103A1
:102F5000083242E800310029F3D1226802F1080367
:102F600053E8003F23F04003083242E800310029D3
:102F7000F3D12023C4F88C300023E366226852E8A2
:102F8000003F23F0100342E800310029F6D1D4F8C5
:102F90008000FFF789FB02232367B4F85C10B4F8C4
:102FA0005E309BB2C91A89B22046FFF7BCFE04E727
:102FB000B4F85C1099427FF400AF136813F0200F4F
:102FC0003FF4FBAE022323672046FFF7ACFEF4E696
:102FD0000100001020010004132D0008B4F85C105B
:102FE000B4F85E309BB2C91A89B2B4F85E309BB2B5
:102FF000002B3FF4E2AE00293FF4DFAE226852E836
:10300000003F23F4907342E800300028F6D1226894
:1030100002F1080353E8003F23F0805323F001033B
:10302000083242E800300028F1D12023C4F88C3067
:103030000023E3666367226852E8003F23F0100331
:1030400042E800300028F6D1022323672046FFF72C
:103050006AFEB2E64FF480131362204600F022FCB1
:10306000ABE6A36F002B3FF4A8AE20469847A4E63A
:103070002046FFF707FEA0E6204600F015FC9CE680
:10308000204600F010FC98E608B5806A012303672B
:10309000C36E012B02D0FFF70EFE08BDB0F85C1026
:1030A0004908FFF740FEF8E708B50346806A1B6849
:1030B0001B6813F0200F29D10023A0F85E300268AE
:1030C00052E8003F23F4807342E800310029F6D132
:1030D000026802F1080353E8003F23F001030832BD
:1030E00042E800310029F3D1026802F1080353E8F5
:1030F000003F23F04003083242E800310029F3D1B9
:103100002023C0F88C30C36E012B07D00023036747
:10311000C36E012B0CD0FFF7CDFD08BD026852E84D
:10312000003F23F0100342E800310029F6D1EDE71B
:10313000B0F85C10FFF7F7FDEFE7000070B504464C
:1031400083680269134342691343C26913430168E8
:103150000868964A02401A430A602268536823F4BA
:103160004053E1680B435360A1692268904B9A4237
:1031700001D0236A1943936823F06E4323F430632C
:103180000B4393602268D36A23F00F03616A0B43F9
:10319000D3622368874A934226D0874A934237D026
:1031A000864A93424DD0864A93425DD0854A9342E7
:1031B0006CD07F4A93427ED010227D498B4200F032
:1031C000B380E069B0F5004F00F00481082A00F2F6
:1031D0006F81DFE812F03201540130016D015701B7
:1031E0006D016D016D015A0102F55842D2F8882037
:1031F00002F00302032A09D8DFE802F00204720693
:103200000122DAE70422D8E70822D6E71022D4E721
:1032100002F5E632D2F8882002F00C020C2A0ED811
:10322000DFE802F0070D0D0D090D0D0D600D0D0D00
:103230000B000022C1E70422BFE70822BDE71022ED
:10324000BBE702F5E432D2F8882002F03002202AEF
:103250004AD005D8002A49D0102A49D10422ACE727
:10326000302A47D10822A8E702F5E232D2F88820B6
:1032700002F0C002802A3FD004D8FAB3402A3FD1DE
:1032800004229AE7C02A3DD1082296E702F5E032EF
:10329000D2F8882002F44072B2F5007F34D005D80D
:1032A000A2B3B2F5807F33D1042286E7B2F5407F26
:1032B00030D1082281E702F5C832D2F8882002F422
:1032C0004062B2F5006F27D005D83AB3B2F5806FEF
:1032D00026D1042271E7B2F5406F23D108226CE7B2
:1032E00002226AE7022268E7022266E7002264E718
:1032F000102262E7102260E702225EE700225CE70C
:1033000010225AE7102258E7022256E7002254E71B
:10331000102252E7102250E702224EE700224CE72B
:1033200010224AE7102248E7082A00F2B180DFE8BD
:1033300002F008AF3BAF38AFAFAF05004FF400402D
:1033400004E0FEF785FB002800F0A480626A1E4BB3
:1033500033F81220B0FBF2F3656805EB45019942A2
:1033600000F29A80B3EB053F00F2988000263346C6
:103370003146FCF7E5FF090241EA106100026B08E3
:10338000C0182A46334641F10001FCF7D9FFA0F5E9
:1033900040720E4B9A4200F283802368D860304618
:1033A00064E0FDF7BBFECEE70948CFE7F369FFCF46
:1033B00000800040003801400044004000480040C8
:1033C000004C004000500040CC020108FFFC0F0000
:1033D0000024F400082A65D8DFE802F00727056416
:1033E0002A6464640B00354803E0FEF731FB0028D3
:1033F0005AD0626A324B33F81230B0FBF3F0626895
:10340000530803EB4003B3FBF2F3A3F110014FF6B3
:10341000EF7291424AD89AB222F00F02C3F34203EC
:1034200013432268D360002020E0FEF723FBDEE791
:10343000FDF774FEDBE7214803E0FEF709FB0028F7
:1034400038D0626A1E4B33F81230B0FBF3F0636879
:1034500000EB5300B0FBF3F0A0F110024FF6EF7356
:103460009A4229D8236880B2D86000200123A4F8AA
:103470006A30A4F8683000236367A36770BDFEF765
:10348000F9FADCE7FDF74AFED9E74FF40040D8E748
:103490000120EBE70020E9E70120E7E70120E5E76D
:1034A0000120E3E70120E1E70020DFE70120DDE77D
:1034B0000120DBE70020D9E70120D7E70024F40052
:1034C000CC020108836A13F0080F06D00268536823
:1034D00023F40043816B0B435360836A13F0010FA5
:1034E00006D00268536823F40033C16A0B4353606B
:1034F000836A13F0020F06D00268536823F4803306
:10350000016B0B435360836A13F0040F06D002680B
:10351000536823F48023416B0B435360836A13F099
:10352000100F06D00268936823F48053C16B0B43DD
:103530009360836A13F0200F06D00268936823F427
:103540000053016C0B439360836A13F0400F0AD061
:103550000268536823F48013416C0B435360436C3F
:10356000B3F5801F0BD0836A13F0800F06D002687A
:10357000536823F40023C16C0B4353607047026807
:10358000536823F4C003816C0B435360EBE72DE9D0
:10359000F84305460E4617469946DDF820802B680D
:1035A000DC6936EA04040CBF01240024BC4236D195
:1035B000B8F1FF3FF3D0FDF727FDA0EB0900404530
:1035C00030D8B8F1000F2FD02B681A6812F0040F12
:1035D000E5D0802EE3D0402EE1D0DA6912F0080F5A
:1035E00011D1DA6912F4006FD9D04FF400621A6277
:1035F0002846FFF74EFA2023C5F89030002385F8BF
:10360000843003200CE008241C622846FFF741FAAE
:10361000C5F89040002385F88430012000E00020A8
:10362000BDE8F8830320FBE70320F9E730B583B05A
:1036300004460023C0F89030FDF7E6FC05462268FA
:10364000126812F0080F10D123681B6813F0040FE2
:1036500028D12023C4F88830C4F88C300020E066DC
:10366000206784F8840003B030BD6FF07E43009380
:10367000034600224FF400112046FFF788FF002880
:10368000E2D0226852E8003F23F0800342E8003194
:103690000029F6D12023C4F88830002384F8843030
:1036A0000320E0E76FF07E4300932B4600224FF4A7
:1036B00080012046FFF76BFF0028CAD0226852E83D
:1036C000003F23F4907342E800310029F6D12268CC
:1036D00002F1080353E8003F23F00103083242E8F7
:1036E00000310029F3D12023C4F88C30002384F862
:1036F00084300320B7E778B310B50446D0F888309B
:103700000BB32423C4F888302268136823F0010324
:103710001360A36AE3B92046FFF710FD012811D01A
:103720002268536823F4904353602268936823F01F
:103730002A0393602268136843F001031360204654
:10374000FFF774FF10BD80F88430FDF77DF9D8E7EE
:103750002046FFF7B7FEDEE70120704710B50446AC
:1037600013468165A0F85C200022C0F89020222238
:10377000C0F88C20D0F88020AAB12149D162D0F8BD
:10378000802020491163D0F880201F495163D0F870
:103790008020002191630168826D2431D0F880007F
:1037A000FEF738FF20BB236943B1226852E8003F8F
:1037B00043F4807342E800310029F6D1226802F117
:1037C000080353E8003F43F00103083242E80031A8
:1037D0000029F3D1226802F1080353E8003F43F0C7
:1037E0004003083242E800310029F3D1002010BD27
:1037F0001023C4F890302023C4F88C300120F6E761
:10380000A930000889300008BB2C000838B5D0F872
:103810008C30202B17D1C1B1CAB10023C366036815
:103820000C4CA3420CD05B6813F4000F08D0046862
:1038300054E8003F43F0806344E80035002DF6D1A2
:10384000FFF78CFF00E0022038BD0120FCE70120DB
:10385000FAE700BF00800040436E2BB90123A0F8B7
:103860006A30A0F86830704730B403689A68C2F3D1
:1038700042629968490F094D6B5CDB00084C615C42
:1038800093FBF1F3A0F86A30AB5CDB00A25C93FB26
:10389000F2F3A0F8683030BC704700BFEC020108BA
:1038A000E402010870477047704790F88430012B9C
:1038B00018D0012380F884302423C0F888300368AE
:1038C0001A68196821F00101196022F000520023E2
:1038D000436601680A602022C0F8882080F884309E
:1038E000184670470220704738B590F88430012B95
:1038F0001DD00446012380F884302423C0F888308A
:1039000003681D681A6822F001021A600268936851
:1039100023F0604319439160FFF79EFF23681D6009
:103920002023C4F88830002084F8840038BD0220A9
:10393000FCE738B590F88430012B1DD004460123F4
:1039400080F884302423C0F8883003681D681A6822
:1039500022F001021A600268936823F06063194341
:103960009160FFF779FF23681D602023C4F8883039
:10397000002084F8840038BD0220FCE7034AD2F816
:10398000883043F47003C2F88830704700ED00E0DF
:1039900000F1080343604FF0FF328260C3600361AF
:1039A00000230360704700230361704743684B6046
:1039B0009A688A6051609960086103680133036006
:1039C000704730B40D68B5F1FF3F11D000F1080326
:1039D0001C465B681A68AA42FAD963684B60996012
:1039E0008C606160086103680133036030BC70471C
:1039F0000469F2E70369416882688A60416851603E
:103A00005A68824206D0002202611A68013A1A609E
:103A10001868704782685A60F5E710B5044601F0EF
:103A2000D1FCA26BE36B9A4204D0002401F0ECFCC1
:103A3000204610BD0124F9E710B5044601F0C2FC90
:103A4000A36B23B9012401F0DFFC204610BD002444
:103A5000F9E770B504461546866B026C5AB90368DF
:103A60001BB100200136A66370BD806800F0ECFF3A
:103A70000023A360F6E76DB9406802F08AFA636834
:103A8000226C13446360A268934219D32368636075
:103A90002846E7E7C06802F07CFAE368226C5142EE
:103AA0009B1AE3602268934202D2A3680B44E3604E
:103AB000022D01D00020D5E726B1013E0020D1E73C
:103AC0002846CFE70020CDE70346026C6AB110B567
:103AD0000846D9681144D9609C68A14201D319688D
:103AE000D960D96802F055FA10BD704738B505465F
:103AF00001F068FC95F8454064B201E0013C64B215
:103B0000002C0ADD6B6A43B105F1240000F0D6FEFB
:103B10000028F3D000F082FFF0E7FF2385F845305E
:103B200001F072FC01F04EFC95F8444064B201E0F3
:103B3000013C64B2002C0ADD2B6943B105F1100091
:103B400000F0BCFE0028F3D000F068FFF0E7FF2390
:103B500085F8443001F058FC38BD38B5E0B10D4669
:103B6000044601F02FFC2368E26B216C01FB02305C
:103B7000A0600020A0636360013A02FB0133E360B0
:103B8000FF2384F8443084F84530FDB9236963B9D4
:103B900001F03AFC012038BD4FF0500383F3118847
:103BA000BFF36F8FBFF34F8FFEE704F1100000F0FB
:103BB00085FE0028ECD04FF0E0234FF08052C3F890
:103BC000042DBFF34F8FBFF36F8FE1E704F11000B7
:103BD000FFF7DEFE04F12400FFF7DAFED8E738B580
:103BE0001D46049C0B4649B92460E063236401210F
:103BF0002046FFF7B2FF84F84C5038BD2260F4E74E
:103C000040B94FF0500383F31188BFF36F8FBFF3B8
:103C10004F8FFEE710B584B01C46844653B192B175
:103C200089B94FF0500383F31188BFF36F8FBFF34F
:103C30004F8FFEE74FF0500383F31188BFF36F8F70
:103C4000BFF34F8FFEE76AB150230393039B502BC2
:103C500013D04FF0500383F31188BFF36F8FBFF37E
:103C60004F8FFEE70029EFD04FF0500383F3118808
:103C7000BFF36F8FBFF34F8FFEE7039B012384F8E1
:103C8000463000949DF818306046FFF7A8FF2046A4
:103C900004B010BDF0B585B0019288B10F461D4645
:103CA0000446B1B1022D20D1E36B012B1DD04FF0A2
:103CB000500383F31188BFF36F8FBFF34F8FFEE77D
:103CC0004FF0500383F31188BFF36F8FBFF34F8F13
:103CD000FEE7036C002BE5D04FF0500383F311880F
:103CE000BFF36F8FBFF34F8FFEE700F09DFE0646D8
:103CF00058B9019B002B48D04FF0500383F3118833
:103D0000BFF36F8FBFF34F8FFEE700263DE02A46DB
:103D100039462046FFF79DFE636A7BB948B14FF0F4
:103D2000E0234FF08052C3F8042DBFF34F8FBFF351
:103D30006F8F01F069FB012005B0F0BD04F1240094
:103D400000F0BCFD0028F4D04FF0E0234FF080528B
:103D5000C3F8042DBFF34F8FBFF36F8FE9E701F076
:103D600053FB0020E8E702A800F00AFE012619E054
:103D7000002384F8443021E0002384F8453023E018
:103D80002046FFF7B3FE00F077FC01F01BFBA26BAF
:103D9000E36B9A42BBD3022DB9D0019B002BDED03E
:103DA000002EE0D001F030FB00F0CCFB01F00AFB6C
:103DB00094F8442052B2B2F1FF3FD9D094F8452094
:103DC00052B2B2F1FF3FD7D001F01EFB01A902A809
:103DD00000F0E2FDD8B92046FFF71FFE0028CFD043
:103DE000019904F1100000F035FD2046FFF77EFE3A
:103DF00000F042FC0028C8D14FF0E0234FF0805281
:103E0000C3F8042DBFF34F8FBFF36F8FBDE720467C
:103E1000FFF76CFE00F030FC00208DE72DE9F84341
:103E200090B10F4616461C460546B1B1022C20D172
:103E3000EB6B012B1DD04FF0500383F31188BFF3C0
:103E40006F8FBFF34F8FFEE74FF0500383F311885E
:103E5000BFF36F8FBFF34F8FFEE7036C002BE5D0EE
:103E60004FF0500383F31188BFF36F8FBFF34F8F71
:103E7000FEE701F0CDFBEFF311884FF0500383F321
:103E80001188BFF36F8FBFF34F8FAA6BEB6B9A4212
:103E900006D3022C04D0002088F31188BDE8F883F3
:103EA00095F845904FFA89F9AB6B2246394628467A
:103EB000FFF7CFFDB9F1FF3F06D009F101035BB277
:103EC00085F845300120E7E76B6A0BB90120E3E78D
:103ED00005F1240000F0F2FC18B126B10120306099
:103EE000DAE70120D8E70120D6E7F0B585B00192E6
:103EF00090B10F460446C1B100F096FD064600BBE6
:103F0000019B002B5ED04FF0500383F31188BFF369
:103F10006F8FBFF34F8FFEE74FF0500383F311888D
:103F2000BFF36F8FBFF34F8FFEE7036C002BE3D01F
:103F30004FF0500383F31188BFF36F8FBFF34F8FA0
:103F4000FEE700263EE039462046FFF7BDFD013D75
:103F5000A563236923B901F057FA012005B0F0BD2C
:103F600004F1100000F0AAFC0028F4D04FF0E02388
:103F70004FF08052C3F8042DBFF34F8FBFF36F8F04
:103F8000E9E701F041FA0020E8E702A800F0F8FCB8
:103F9000012621E0002384F8443029E0002384F83E
:103FA00045302BE02046FFF7A1FD00F065FB09E05E
:103FB0002046FFF79BFD00F05FFB2046FFF73CFD2E
:103FC00000283FD101F0FEF9A56B002DBBD1019B6C
:103FD000002BD6D0002ED8D001F016FA00F0B2FA9D
:103FE00001F0F0F994F844305BB2B3F1FF3FD1D067
:103FF00094F845305BB2B3F1FF3FCFD001F004FA43
:1040000001A902A800F0C8FC0028D1D12046FFF782
:1040100013FD0028C6D0019904F1240000F01AFC19
:104020002046FFF763FD00F027FB0028CAD14FF0C0
:10403000E0234FF08052C3F8042DBFF34F8FBFF33E
:104040006F8FBFE7002089E70023072B0CD8074AB2
:1040500052F833200AB10133F7E7044A42F833102B
:1040600002EBC30250607047704700BF103200205F
:1040700070B504460D46164601F0A4F994F8443094
:104080005BB2B3F1FF3F0DD094F845305BB2B3F1B2
:10409000FF3F0BD001F0B8F9A36B5BB12046FFF7EF
:1040A00025FD70BD002384F84430EDE7002384F83B
:1040B0004530EFE73246294604F1240000F0E2FBE8
:1040C000ECE70000084B1B681B6823B9074B4FF057
:1040D000FF321A607047044B1B68DB68DB685A6864
:1040E000024B1A60704700BFC032002058320020D7
:1040F0002DE9F04780460D4617469946089EDDF8A3
:1041000024A00A9C9200A521206B01F0C6FE236B1F
:1041100007F18042013A03EB820727F00707A5B3B6
:104120004FF0000CBCF10F0F09D815F80C3004EB60
:104130000C0282F8343013B10CF1010CF2E70023C9
:1041400084F84330372E00D93726E662E66400252E
:104150002565201DFFF727FC04F11800FFF723FC5D
:104160002461C6F13806A6616462656584F858501A
:104170004A464146384601F0F7F82060BAF1000F90
:1041800001D0CAF80040BDE8F087002384F834303D
:10419000D8E7000038B5002407E004EB8402930060
:1041A0000E481844FFF7F4FB0134372CF5D90C4DB9
:1041B0002846FFF7EDFB0B4C2046FFF7E9FB0A48CA
:1041C000FFF7E6FB0948FFF7E3FB0948FFF7E0FBD1
:1041D000084B1D60084B1C6038BD00BFEC3200204E
:1041E000D8320020C4320020A832002094320020AF
:1041F0007C320020C0320020BC32002010B50446C2
:1042000001F0E0F8224A136801331360214B1B6868
:104210005BB1214B1B686BB91E4B1B68DA6AE36A02
:104220009A4207D81B4B1C6004E01A4B1C601368B1
:10423000012B29D0194A1368013313606364E06AC3
:10424000174B1B68984201D9154B186000EB800092
:10425000211D144B03EB8000FFF7A8FB01F0D4F8FD
:104260000D4B1B687BB10B4B1B68DA6AE36A9A4201
:1042700009D24FF0E0234FF08052C3F8042DBFF372
:104280004F8FBFF36F8F10BDFFF784FFD2E700BFE2
:10429000783200204C3700206C3200205C32002045
:1042A00070320020EC32002010B5044690F85930EE
:1042B00063B1012B11D0022B0ED04FF0500383F3CA
:1042C0001188BFF36F8FBFF34F8FFEE7006B00F0D5
:1042D000CFFF204600F0CCFF10BD00F0C9FFFBE788
:1042E0000F4B1B68D3B110B501F06CF80D4BDB68B8
:1042F000DC68201DFFF77EFB0B4A1368013B13604F
:10430000074A1368013B136001F07EF82046FFF76F
:10431000CBFF034B1B68002BE6D110BD704700BFDD
:1043200090320020943200207832002008B5FFF748
:10433000D7FF074B1B68012BF9D94FF0E0234FF053
:104340008052C3F8042DBFF34F8FBFF36F8FEEE79A
:10435000EC32002070B504460D46174B1E68174B13
:1043600018680430FFF746FBB4F1FF3F0DD034442A
:10437000124B1B685C60A64210D9114B18680F4B9A
:1043800019680431FFF71DFB70BD002DEFD00B4BFA
:10439000196804310B48FFF709FBF5E70A4B186869
:1043A000064B19680431FFF70CFB084B1B68A3424E
:1043B000EAD9064B1C60E7E7743200204C37002036
:1043C000BC3200207C320020C03200205832002055
:1043D00030B587B00B9C7CB10C9DB5B15C250495C4
:1043E000049D5C2D1AD04FF0500383F31188BFF366
:1043F0006F8FBFF34F8FFEE74FF0500383F31188A9
:10440000BFF36F8FBFF34F8FFEE74FF0500383F37F
:104410001188BFF36F8FBFF34F8FFEE7049D0C9D94
:104420002C63022485F8594000240394029505ACBE
:1044300001940A9C0094FFF75BFE0C98FFF7DEFEE8
:10444000059807B030BD2DE9F04385B00746884692
:1044500014461E46900000F089FE08B381465C2099
:1044600000F084FE0546A8B1C0F83090002380F823
:104470005930039302900D9B01930C9B009333469C
:10448000224641463846FFF733FE2846FFF7B6FE80
:10449000012007E0484600F0EBFE4FF0FF3001E05E
:1044A0004FF0FF3005B0BDE8F083000010B588B0D4
:1044B00000240594069407AA06A905A800F0D8FDD3
:1044C000059B0293069B019300942346079A174984
:1044D0001748FFF77DFF174B1860C0B100F068FB6D
:1044E000012815D14FF0500383F31188BFF36F8F6C
:1044F000BFF34F8F104B4FF0FF321A600F4B01226A
:104500001A600F4B00221A6000F0F6FF03E0002053
:10451000B0F1FF3F01D008B010BD4FF0500383F35E
:104520001188BFF36F8FBFF34F8FFEE78CFD00083C
:104530002D43000854320020583200206C320020F5
:1045400074320020024A136801331360704700BFC1
:1045500050320020014B1868704700BF74320020B1
:10456000F8B53A4B1B68002B69D1394B1D680135F2
:104570001D60C5B9374B1B681B6843B14FF0500332
:1045800083F31188BFF36F8FBFF34F8FFEE7314A7C
:104590001168314B186810601960304A1368013394
:1045A0001360FFF78FFD2E4B1B68AB423DD90027F0
:1045B0002C4B1B68DB6A03EB83039A002A4B9B5846
:1045C000012B00D90127294B1B68002B3CD0012768
:1045D0003AE001271F4B1B681B6843B31D4B1B6848
:1045E000DB68DC6863689D4226D3261D3046FFF7F2
:1045F00001FAA36A1BB104F11800FFF7FBF9E36AA3
:104600001B4A1268934201D9194A136003EB8303D2
:104610009A00314614481044FFF7C8F9E26A114B7A
:104620001B68DB6A9A42D4D2D4E70027D2E70C4B4E
:104630004FF0FF321A60BBE7094A1360B8E70D4A32
:1046400013680133136000273846F8BD503200204C
:1046500074320020C0320020BC32002060320020C2
:10466000583200204C370020EC3200206432002009
:10467000703200206832002038B5354B1B6843B9D2
:104680004FF0500383F31188BFF36F8FBFF34F8F49
:10469000FEE700F097FE2E4B1A68013A1A601B687D
:1046A000002B4FD12B4B1B680BB900244BE000248F
:1046B000294B1B681BB3284BDB68DC6804F118002E
:1046C000FFF798F9251D2846FFF794F9E06A234B78
:1046D0001B68984201D9214B186000EB80002946E5
:1046E0001F4B03EB8000FFF761F9E26A1D4B1B686B
:1046F000DB6A9A42DCD31C4B01221A60D8E70CB16A
:10470000FFF7E0FC194B1C6884B9174B1C68D4B147
:104710004FF0E0234FF08052C3F8042DBFF34F8FCA
:10472000BFF36F8F01240EE0013C07D0FFF718FFA5
:104730000028F9D00C4B01221A60F5E70B4B002240
:104740001A60E2E7002400F05FFE204638BD00BF9B
:104750005032002078320020A83200207032002031
:10476000EC3200204C3700206432002068320020F8
:1047700010B5A8B10446104B1B6843B14FF050036D
:1047800083F31188BFF36F8FBFF34F8FFEE7FFF7FF
:10479000D9FE00212046FFF7DDFDFFF76DFF48B988
:1047A0004FF0E0234FF08052C3F8042DBFF34F8F3A
:1047B000BFF36F8F10BD00BF50320020204B1B682D
:1047C0001BB1204B01221A6070471E4B00221A6059
:1047D0001D4B1B6803EB83018A001C498A585AB998
:1047E0000BB1013BF6E74FF0500383F31188BFF3A1
:1047F0006F8FBFF34F8FFEE7084603EB83018A00FC
:10480000024451684968516003EB830C4FEA8C0203
:104810000832024491420BD003EB830291000B4A11
:104820000A445268D1680A4A1160074A1360704707
:10483000486862469100054A0A445060ECE700BFB0
:10484000503200206432002070320020EC32002010
:104850004C37002058B110B50C46094A1168183180
:10486000FFF7AFF801212046FFF774FD10BD4FF0B0
:10487000500383F31188BFF36F8FBFF34F8FFEE7B1
:104880004C37002038B570B10D4614460A4A1168FD
:104890001831FFF78BF80CB14FF0FF352146284651
:1048A000FFF758FD38BD4FF0500383F31188BFF375
:1048B0006F8FBFF34F8FFEE74C37002038B5C368CA
:1048C000DC6824B304F118052846FFF793F8184B69
:1048D0001B682BBB251D2846FFF78CF8E06A154B9B
:1048E0001B68984201D9134B186000EB80002946E1
:1048F000114B03EB8000FFF759F8E26A0F4B1B687E
:10490000DB6A9A4211D901200D4B186038BD4FF077
:10491000500383F31188BFF36F8FBFF34F8FFEE710
:1049200029460848FFF742F8E7E70020EEE700BF16
:104930005032002070320020EC3200204C37002032
:1049400064320020A832002060B110B5044600F0A7
:1049500039FD094B1B682360084B1B68636000F03E
:1049600053FD10BD4FF0500383F31188BFF36F8FD9
:10497000BFF34F8FFEE700BF60320020743200208B
:10498000034B1B680360034B1B684360704700BF09
:104990006032002074320020F8B5C8B10C460546DC
:1049A000F9B100F00FFD1B4B19686B68C81A22683B
:1049B000B2F1FF3F26D0184E36682F68B74201D0BB
:1049C0008B4224D9824215D80023236001241AE0A7
:1049D0004FF0500383F31188BFF36F8FBFF34F8FF6
:1049E000FEE74FF0500383F31188BFF36F8FBFF3DF
:1049F0004F8FFEE75B1A134423602846FFF7C0FF82
:104A0000002400E0002400F0FFFC2046F8BD012453
:104A1000F9E700BF7432002060320020014B012210
:104A20001A60704764320020054B1B6833B1054B98
:104A30001B680BB1002070470220704701207047AF
:104A40006C3200205032002000283BD038B504469C
:104A50001E4B1B68834208D04FF0500383F311882C
:104A6000BFF36F8FBFF34F8FFEE7036D43B94FF076
:104A7000500383F31188BFF36F8FBFF34F8FFEE7AF
:104A8000013B0365C16AC26C91421DD00BB100208D
:104A900038BD051D2846FEF7ADFFE06CE062C0F1B1
:104AA0003803A3610A4B1B68984201D9084B186070
:104AB00000EB80002946074B03EB8000FEF776FFF2
:104AC0000120E5E7002070470020E1E74C37002097
:104AD00070320020EC320020064B1A6813682BB9A4
:104AE0000123036023B9D368186870470023F8E7EF
:104AF000002070475038002008B5416000619142A5
:104B00000CD8D21A83699A4201D3012008BD011D35
:104B1000094B1868FEF755FF0020F7E79A4201D2CB
:104B2000994206D2011D054B1868FEF74AFF002086
:104B3000ECE70120EAE700BF4C38002050380020A5
:104B400030B583B000F03EFC114B1B681BB100F088
:104B50005BFC03B030BD0F4D2846FEF719FF0E4C2D
:104B60002046FEF715FF0D4B1D600D4B1C6000230A
:104B700000930C4B0C4A10210A20FFF741F8044B1C
:104B800018600028E3D00949FFF75EFADFE700BFAD
:104B90004838002068380020543800205038002061
:104BA0004C38002050370020A037002094FD00082A
:104BB00010B588B0FFF7C4FF124B1B68CBB10024BF
:104BC0000594069407AA06A905A800F05DFA059BBE
:104BD0000293069B0193022300932346079A0A49F6
:104BE0000A48FFF7F5FB0A4B186010B1012008B026
:104BF00010BD4FF0500383F31188BFF36F8FBFF3E5
:104C00004F8FFEE7483800209CFD0008154F000834
:104C100044380020B8B19C4603461848006858B391
:104C200000B585B000910192029305291CDCFFF7C5
:104C3000FBFE022810D000231A4669460F48006880
:104C4000FFF728F815E04FF0500383F31188BFF306
:104C50006F8FBFF34F8FFEE70023069A6946074820
:104C60000068FFF717F804E0002362466946FFF783
:104C7000D5F805B05DF804FB0020704748380020E7
:104C800070B582B01B4B1B681A6862B3DB681E6884
:104C9000DC68251D2846FEF7ADFE236A20469847AE
:104CA00094F8283013F0040FECD0A36933449E42EB
:104CB00007D26360246129460E4B1868FEF781FE17
:104CC000E0E7002100910B4632462046FFF7A2FFA5
:104CD0000028D7D14FF0500383F31188BFF36F8FB3
:104CE000BFF34F8FFEE7044A106802490860136063
:104CF00002B070BD503800204C38002038B5054651
:104D0000FFF728FC0446074B1B68834205D80023A5
:104D10002B60044B1C60204638BDFFF7B1FF012318
:104D20002B60F6E74038002070B582B006460D468D
:104D300017490968C968CC68201DFEF75BFE94F826
:104D400028C01CF0040F08D12CF0010C84F828C0F6
:104D5000236A2046984702B070BDA16933462A46AF
:104D600031442046FFF7C8FE0028F1D00021009111
:104D70000B4632462046FFF74DFF0028E8D14FF0A2
:104D8000500383F31188BFF36F8FBFF34F8FFEE79C
:104D90005038002070B582B006460C46FFF7D2FBB3
:104DA00001A8FFF7ABFF019B33BB0546E4B9B04256
:104DB00013D22246711B124B1868FFF759F9FFF7FF
:104DC0005BFCD8B94FF0E0234FF08052C3F8042DBC
:104DD000BFF34F8FBFF36F8F10E0FFF74DFC2946F5
:104DE0003046FFF7A1FF09E0064A126812680AB9C7
:104DF0000124DEE71C46DCE7FFF73EFC02B070BD95
:104E0000483800204C38002010B588B002E0049BE0
:104E1000002B0FDA002204A93D4B1868FFF765F854
:104E2000002873D0049B002BF1DA07990698059BA4
:104E30009847ECE7069C636913B1201DFEF7DAFD85
:104E400003A8FFF75BFF049B092BE3D8DFE803F01F
:104E50000505053037500505303794F8283043F004
:104E6000010384F82830059BA169024619442046B5
:104E7000FFF742FE0028CDD0236A2046984794F8D9
:104E8000283013F0040FC5D0A269002100910B4611
:104E9000059802442046FFF7BDFE0028BAD14FF026
:104EA000500383F31188BFF36F8FBFF34F8FFEE77B
:104EB00094F8283023F0010384F82830AAE794F806
:104EC000283043F0010384F828300599A16131B1FD
:104ED0000346024601442046FFF70EFE9AE74FF0D4
:104EE000500383F31188BFF36F8FBFF34F8FFEE73B
:104EF00094F8283013F0020F04D023F0010384F853
:104F0000283087E7204600F0B3F983E708B010BDEA
:104F10004838002000B583B001A8FFF7DDFD0199F6
:104F2000FFF738FFFFF770FFF6E708B54FF0E02313
:104F30001B69FFF779FD012800D108BD00F0B2FA26
:104F4000FBE70000EFF305832BB9064B186828B97F
:104F500001221A6070476FF0050070474FF0FF3074
:104F6000704700BF343F0020EFF3058373B90A4B4D
:104F70001B68012B0DD110B50024084BDC77064BC4
:104F800002221A60FFF792FA204610BD6FF005006A
:104F900070474FF0FF307047343F002000ED00E0D5
:104FA000F0B587B000240594EFF3058404BBF8B195
:104FB000002A34D0156893692BB11E46013B372B6C
:104FC00002D9002015E01826536813F0010F3FD1D5
:104FD000546984B14FEA940C93682BB1D7685B2F66
:104FE00002D9176907B184B943B14FF0FF330BB34E
:104FF000059807B0F0BD4FF0800CEDE7D368A3B97A
:105000001369ABB14FF0FF33F1E7029301970096BC
:105010000B4662462946FFF7DBF90590E8E715469F
:10502000002318264FF0800CE1E74FF0FF33DEE756
:105030000023DCE705AB019300960B461FFA8CF2C8
:105040002946FFF700FA0128D2D000230593CFE7C5
:105050000020CEE708B5EFF3058333B908B9002087
:1050600008BDFFF785FB0020FAE76FF00500F7E7C2
:10507000034B0360034B0B6080231360704700BF3A
:10508000D83E0020D83C0020034B0360034B0B604C
:105090004FF48073136070477C3C00207C38002004
:1050A000134A12F0070F1FD0D11D21F00701C1F5DF
:1050B0003B63083313440A460E48026000214160F6
:1050C0001344083B23F007030B4803605960196041
:1050D000991A51601360094B1960094B1960094B0B
:1050E0004FF000421A60704740F6B833E4E700BF63
:1050F000583F0020503F00204C3F0020443F0020FC
:10510000483F0020383F0020164B1A461B68834258
:10511000FBD3516802EB010C844509D0416800EBD8
:10512000010C634509D00360904219D010607047AC
:105130004068014451601046F0E710B40A4C2468FE
:10514000A3420BD05B681944416013681B6803607D
:10515000904200D010605DF8044B70470460F7E7A0
:10516000704700BF503F00204C3F002038B5044638
:10517000FFF7E8F9384B1B68B3B1384B1B681C428A
:1051800050D1002C50D004F1080214F0070F02D0C7
:1051900022F007020832002A55D0314B1B68934297
:1051A00053D330490C6804E0FFF77AFFE5E7214666
:1051B0001C466368934202D22368002BF7D1264B2A
:1051C0001B68A34243D00D68083523680B606368F1
:1051D0009B1A102B10D9A01810F0070F08D04FF011
:1051E000500383F31188BFF36F8FBFF34F8FFEE738
:1051F00043606260FFF788FF626819490B689B1A79
:105200000B60194909688B4201D217490B60134B97
:105210001B681343636000232360144A136801333F
:10522000136002E0002500E00025FFF725FA15F0E5
:10523000070F0ED04FF0500383F31188BFF36F8F29
:10524000BFF34F8FFEE70025EFE70025EDE70025D0
:10525000EBE7284638BD00BF4C3F0020383F002018
:10526000483F0020503F0020443F0020403F0020A6
:10527000002834D038B50446A0F1080550F8043CA5
:10528000174A1268134208D14FF0500383F3118874
:10529000BFF36F8FBFF34F8FFEE750F8081C41B18B
:1052A0004FF0500383F31188BFF36F8FBFF34F8F1D
:1052B000FEE723EA020340F8043CFFF743F954F801
:1052C000041C084A13680B4413602846FFF71CFFB0
:1052D000054A136801331360FFF7CEF938BD7047F4
:1052E000383F0020483F00203C3F002082B0002390
:1052F00001930D4B1B68B3F1FF3F08D04FF05003F3
:1053000083F31188BFF36F8FBFF34F8FFEE74FF02A
:10531000500383F31188BFF36F8FBFF34F8F019B4F
:10532000002BFCD002B070470C0000200848006839
:10533000006880F308884FF0000080F3148862B69C
:1053400061B6BFF34F8FBFF36F8F00DF00BF000068
:1053500008ED00E0DFF80C00016841F47001016025
:105360007047000088ED00E04FF0807340F8043C87
:1053700021F0010140F8081C054B40F80C3C40F8B6
:10538000202C6FF0020340F8243C4438704700BFE3
:10539000ED520008000000000000000000000000C6
:1053A000074B19680868B0E8F04F80F30988BFF32D
:1053B0006F8F4FF0000080F311887047AFF30080CB
:1053C0004C3700204FF0500383F31188BFF36F8FE9
:1053D000BFF34F8F0B4A136801331360012B00D0CA
:1053E00070474FF0E023D3F8043D13F0FF0FF7D0E0
:1053F0004FF0500383F31188BFF36F8FBFF34F8FCC
:10540000FEE700BF0C000020094B1B6843B94FF0BA
:10541000500383F31188BFF36F8FBFF34F8FFEE705
:10542000013B034A13600BB983F31188704700BF37
:105430000C00002000000000000000000000000040
:10544000EFF30980BFF36F8F154B1A681EF0100F32
:1054500008BF20ED108A20E9F04F10602DE9090007
:105460004FF0500080F31188BFF34F8FBFF36F8F61
:10547000FFF7A4F94FF0000080F3118809BC196808
:105480000868B0E8F04F1EF0100F08BFB0EC108AAB
:1054900080F30988BFF36F8F704700BFAFF30080C0
:1054A0004C37002008B54FF0500383F31188BFF349
:1054B0006F8FBFF34F8FFFF753F828B14FF0E02302
:1054C0004FF08052C3F8042D002383F3118808BDE8
:1054D0004FF0E022002313619361054B1B680549DF
:1054E000A1FB03139B09013B536107231361704721
:1054F00008000020D34D62104FF0E023D3F8002DB8
:105500003D4B9A421CD04FF0E023D3F8002D3B4B8B
:105510009A421ED030B583B0394B1A78D2B201927C
:10552000FF221A701B78DBB28DF803309DF8033030
:1055300003F05003334A1370334B07221A601BE009
:105540004FF0500383F31188BFF36F8FBFF34F8F7A
:10555000FEE74FF0500383F31188BFF36F8FBFF363
:105560004F8FFEE7284A1368013B13609DF8033014
:105570005B00DBB28DF803309DF8033013F0800F31
:10558000F0D1214B1B68032B08D04FF0500383F35D
:105590001188BFF36F8FBFF34F8FFEE71B021A4ACC
:1055A000136003F4E0631360019BDBB2144A1370D1
:1055B0004FF0E024D4F8203D43F47003C4F8203DBC
:1055C000D4F8203D43F07043C4F8203DFFF780FF3E
:1055D00000250E4B1D60FFF7BDFED4F8343F43F0AD
:1055E0004043C4F8343FFFF7A1FEFFF7E7F8FFF7A9
:1055F0007DFE284603B030BD71C20F4170C20F411D
:1056000000E400E0144B0020104B00200C000020B0
:10561000EFF305830F2B0FD9114A9B5CDBB2114AC4
:1056200012789A4208D94FF0500383F31188BFF3E0
:105630006F8FBFF34F8FFEE74FF0E023D3F80C3DA1
:1056400003F4E063084A1268934208D94FF050030C
:1056500083F31188BFF36F8FBFF34F8FFEE770475F
:10566000F0E300E0144B0020104B002010B503467F
:105670000C4A0D490D48006840B10C4800680344CD
:10568000521A934206D8094A136010BD0748084CC5
:105690000460F2E700F050FC0C2303604FF0FF3091
:1056A000F3E700BF0000032000040000184B0020B7
:1056B00058AB00200120704708B500F03DFC1623D0
:1056C00003604FF0FF3008BD08B54FF0FF31FFF722
:1056D000F3FFFEE770B50C461646002506E0AFF373
:1056E0000080214601F8010B01350C46B542F6DB7E
:1056F000304670BD70B50C461646002504E014F81F
:10570000010BAFF300800135B542F8DB304670BDC8
:105710004FF0FF3070474FF400534B60002070474C
:105720000120704700207047134A12F0070F1FD066
:10573000D11D21F00701C1F53B63083313440A462C
:105740000E480260002141601344083B23F0070328
:105750000B48036059601960991A51601360094B36
:105760001960094B1960094B4FF000421A607047ED
:1057700040F6B833E4E700BF384B0020304B002040
:105780002C4B0020244B0020284B0020204B0020D5
:10579000164B1A461B688342FBD3516802EB010C7F
:1057A000844509D0416800EB010C634509D00360D2
:1057B000904219D010607047406801445160104613
:1057C000F0E710B40A4C2468A3420BD05B6819447C
:1057D000416013681B680360904200D010605DF860
:1057E000044B70470460F7E7704700BF304B002060
:1057F0002C4B002038B50446FEF7A4FE364B1B6840
:10580000B3B1364B1B681C424CD1002C4CD004F178
:10581000080214F0070F02D022F007020832002A13
:1058200051D02F4B1B6893424FD32E490C6804E094
:10583000FFF77AFFE5E721461C466368934202D2F0
:105840002368002BF7D1244B1B68A3423FD00D687F
:10585000083523680B6063689B1A102B10D9A018B9
:1058600010F0070F08D04FF0500383F31188BFF3F7
:105870006F8FBFF34F8FFEE743606260FFF788FFD3
:10588000626817490B689B1A0B60174909688B42BD
:1058900001D215490B60114B1B6813436360002351
:1058A000236002E0002500E00025FEF7E5FE15F08C
:1058B000070F0ED04FF0500383F31188BFF36F8FA3
:1058C000BFF34F8FFEE70025EFE70025EDE700254A
:1058D000EBE7284638BD00BF2C4B0020204B0020B2
:1058E000284B0020304B0020244B002080B338B5DB
:1058F0000446A0F1080550F8043C164A1268134209
:1059000008D14FF0500383F31188BFF36F8FBFF3BB
:105910004F8FFEE750F8081C41B14FF0500383F35E
:105920001188BFF36F8FBFF34F8FFEE723EA0203A7
:1059300040F8043CFEF706FE54F8041C064A1368BF
:105940000B4413602846FFF723FFFEF795FE38BD92
:10595000704700BF204B0020284B002050F8043C2B
:10596000024A106823EA0000704700BF204B002065
:1059700070B505460C46FEF7E5FD2046FFF73AFFF9
:10598000064678B175B12846FFF7E8FF083884422B
:1059900000D3044622462946304600F0FAFA28464B
:1059A000FFF7A4FFFEF768FE304670BD38B5054628
:1059B0000C46FEF7C7FD05FB04F42046FFF71AFF6F
:1059C0000546034603E0002103F8011B1446621E4E
:1059D000002CF8D1FEF750FE284638BD08B5054921
:1059E0000A6802440A6004490A6802440A60FFF730
:1059F00001FF08BDF4560020F056002058B110B544
:105A00000446FFF7ABFF044A13681B1A13602046D5
:105A1000FFF76CFF10BD7047F056002038B50C46FC
:105A20000C4A13680B4413600B4A13680B44136051
:105A300058B10546FFF792FF074A13681B1A136017
:105A400021462846FFF794FF38BD0846FFF7D2FEEF
:105A5000FAE700BFF4560020F056002010B501FB15
:105A600000F3054C22681A442260044C22681A4450
:105A70002260FFF79BFF10BDF4560020F056002077
:105A80002DE9F04107460E46144615A3D3E900233D
:105A9000FAF706FC0D4680462060616010A3D3E94A
:105AA000002338463146FAF7FBFBA260002A01DBEF
:105AB000BDE8F081084981FB0231D317C3EB2173A4
:105AC0000133B8EB030165EBE375216065600349C1
:105AD00001FB0322A260EBE7A12FB84400CA9A3B66
